S0100000526F626F48616E642E7372656307
S11300000C9434000C9451000C9451000C94510045
S11300100C9451000C9451000C9451000C94510018
S11300200C9451000C9451000C9451000C94510008
S11300300C9451000C9451000C9451000C945100F8
S11300400C9451000C9451000C9451000C945100E8
S11300500C9451000C9451000C9451000C945100D8
S11300600C9451000C94510011241FBECFEFD8E022
S1130070DEBFCDBF11E0A0E0B1E0E4E1F4E002C0F6
S113008005900D92A630B107D9F721E0A6E0B1E0C2
S113009001C01D92AC30B207E1F70E94A4010C9498
S11300A008020C94000064E680E00E94E70060E02F
S11300B081E00E94E70064E682E00E94E70064E6D3
S11300C083E00E94E70060E084E00E94E700089576
S11300D064E680E00E94E70064E681E00E94E700B5
S11300E060E082E00E94E70064E683E00E94E700AB
S11300F064E684E00E94E700089560E080E00E94E6
S1130100E70064E681E00E94E70064E682E00E9482
S1130110E70064E683E00E94E70060E084E00E9478
S1130120E700089560E080E00E94E70064E681E073
S11301300E94E70064E682E00E94E70064E683E050
S11301400E94E70064E684E00E94E700089564E604
S113015080E00E94E70064E681E00E94E70064E634
S113016082E00E94E70064E683E00E94E70064E620
S113017084E00E94E7000895823089F028F48823FF
S113018049F0813051F01DC0843091F050F0853039
S1130190B1F017C06093B40014C068BD12C067BD4D
S11301A010C0262F30E0309389002093880009C0C6
S11301B0262F30E030938B0020938A0002C0609396
S11301C0B300E82FF0E0EA5FFE4F60830895282F24
S11301D0823099F128F4882351F08130F9F062C01B
S11301E0833009F441C0843009F44DC05BC070E031
S11301F0660F771FCB01880F991F880F991F880FEF
S1130200991F861B970B64E670E00E94E001695F0A
S11302107F4F072E000C880B990B47C03DE0639F6E
S1130220C001112464E670E00E94E001695F7F4F21
S1130230072E000C880B990B38C070E0660F771FEF
S1130240CB01880F991F880F991F880F991F861B50
S1130250970B64E670E00E94E0016A5F7F4F072E0F
S1130260000C880B990B21C03FE0639FC00111244F
S113027064E670E00E94E001695F7F4F072E000C86
S1130280880B990B12C03DE0639FC001112464E602
S113029070E00E94E001685F7F4F072E000C880B1E
S11302A0990B03C060E070E0CB01822F0E94BC0078
S11302B00895833048F49AB1E82FF0E0E050FF4FFE
S11302C08081892B8AB9089594B1E82FF0E0E05039
S11302D0FF4F8081892B84B9089580E00E945901E1
S11302E081E00E94590182E00E94590183E00E944A
S11302F0590184E00E94590185E00E945901089542
S113030084B5836A84BD85B5856085BD0895E0E8BC
S1130310F0E08081816A8083E1E8F0E080818D6093
S113032080830895E0EBF0E08081836A8083E1EBD1
S1130330F0E080818760808308950E9480010E949C
S113034087010E94920108950E946D010E949D01FF
S11303500E9453002FEF8BE792E921508040904098
S1130360E1F700C000000E9468002FEF8BE792E9DC
S1130370215080409040E1F700C000000E947D00C1
S11303802FEF8BE792E9215080409040E1F700C0C5
S113039000000E94A7002FEF8BE792E921508040D4
S11303A09040E1F700C000000E9492002FEF8BE71D
S11303B092E9215080409040E1F700C00000FFCF57
S11303C097FB072E16F4009407D077FD09D00E94FE
S11303D0F40107FC05D03EF4909581959F4F089554
S11303E0709561957F4F0895AA1BBB1B51E107C00F
S11303F0AA1FBB1FA617B70710F0A61BB70B881FB1
S1130400991F5A95A9F780959095BC01CD0108953F
S1070410F894FFCF8A
S109041408204002040868
S9030000FC
