:100000000C9434000C9449000C9449000C94490061
:100010000C9449000C9449000C9449000C9449003C
:100020000C9449000C9449000C9449000C9449002C
:100030000C9449000C9449000C9449000C9449001C
:100040000C9449000C9449000C9449000C9449000C
:100050000C9449000C9449000C9449000C944900FC
:100060000C9449000C94490011241FBECFEFD8E036
:10007000DEBFCDBF11E0A0E0B1E0E2E9F1E002C0F7
:1000800005900D92A630B107D9F70E94BA000C94E2
:10009000C7000C940000823089F028F4882349F0CE
:1000A000813051F00895843089F050F08530A1F00E
:1000B00008956093B400089567BD089568BD0895DC
:1000C00070E07093890060938800089570E07093E9
:1000D0008B0060938A0008956093B3000895833085
:1000E00048F49AB1E82FF0E0E050FF4F8081892B6F
:1000F0008AB9089594B1E82FF0E0E050FF4F808175
:10010000892B84B9089580E00E946F0081E00E94ED
:100110006F0082E00E946F0083E00E946F0084E025
:100120000E946F0085E00E946F00089584B5836A85
:1001300084BD85B5856085BD0895E0E8F0E08081E7
:10014000816A8083E1E8F0E080818D60808308959A
:10015000E0EBF0E08081836A8083E1EBF0E0808176
:100160008760808308950E9496000E949D000E94EF
:10017000A80008950E9483000E94B3006FE080E011
:100180000E944B0063E181E00E944B00FFCFF89496
:02019000FFCF9F
:06019200082040020408F1
:00000001FF
