S0100000526F626F48616E642E7372656307
S11300000C9434000C9451000C9451000C94510045
S11300100C9451000C9451000C9451000C94510018
S11300200C9451000C9451000C9451000C94510008
S11300300C9451000C9451000C9451000C945100F8
S11300400C9451000C9451000C9451000C945100E8
S11300500C9451000C9451000C9451000C945100D8
S11300600C9451000C94510011241FBECFEFD8E022
S1130070DEBFCDBF11E0A0E0B1E0ECEFF2E002C0E2
S113008005900D92A630B107D9F721E0A6E0B1E0C2
S113009001C01D92AC30B207E1F70E943B010C9401
S11300A07C010C940000823089F028F4882349F004
S11300B0813051F01DC0843091F050F08530B1F0A2
S11300C017C06093B40014C068BD12C067BD10C0EF
S11300D0262F30E0309389002093880009C0262F12
S11300E030E030938B0020938A0002C06093B30009
S11300F0E82FF0E0EA5FFE4F60830895282F8230F6
S113010099F128F4882351F08130F9F062C08330EA
S113011009F441C0843009F44DC05BC070E0660F3F
S1130120771FCB01880F991F880F991F880F991F7C
S1130130861B970B64E670E00E945401695F7F4F51
S1130140072E000C880B990B47C03DE0639FC0014C
S1130150112464E670E00E945401695F7F4F072E0A
S1130160000C880B990B38C070E0660F771FCB0129
S1130170880F991F880F991F880F991F861B970B4B
S113018064E670E00E9454016A5F7F4F072E000C02
S1130190880B990B21C03FE0639FC001112464E6E2
S11301A070E00E945401695F7F4F072E000C880B9A
S11301B0990B12C03DE0639FC001112464E670E016
S11301C00E945401685F7F4F072E000C880B990B27
S11301D003C060E070E0CB01822F0E9453000895B9
S11301E0833048F49AB1E82FF0E0E050FF4F80816B
S11301F0892B8AB9089594B1E82FF0E0E050FF4FBD
S11302008081892B84B9089580E00E94F00081E008
S11302100E94F00082E00E94F00083E00E94F0005F
S113022084E00E94F00085E00E94F000089584B507
S1130230836A84BD85B5856085BD0895E0E8F0E0F6
S11302408081816A8083E1E8F0E080818D60808331
S11302500895E0EBF0E08081836A8083E1EBF0E0D5
S113026080818760808308950E9417010E941E0187
S11302700E94290108950E9404010E94340164E649
S113028080E00E947E0060E081E00E947E0064E6DF
S113029082E00E947E0064E683E00E947E0064E6C1
S11302A084E00E947E00FFCF97FB072E16F4009493
S11302B007D077FD09D00E94680107FC05D03EF401
S11302C0909581959F4F0895709561957F4F0895FE
S11302D0AA1BBB1B51E107C0AA1FBB1FA617B70768
S11302E010F0A61BB70B881F991F5A95A9F7809584
S10F02F09095BC01CD010895F894FFCF57
S10902FC08204002040882
S9030000FC
