:100000000C9434000C9451000C9451000C94510049
:100010000C9451000C9451000C9451000C9451001C
:100020000C9451000C9451000C9451000C9451000C
:100030000C9451000C9451000C9451000C945100FC
:100040000C9451000C9451000C9451000C945100EC
:100050000C9451000C9451000C9451000C945100DC
:100060000C9451000C94510011241FBECFEFD8E026
:10007000DEBFCDBF11E0A0E0B1E0E6E6F2E002C0F5
:1000800005900D92A630B107D9F721E0A6E0B1E0C6
:1000900001C01D92AC30B207E1F70E94F0000C9451
:1000A00031010C940000823089F028F4882349F053
:1000B000813051F01DC0843091F050F08530B1F0A6
:1000C00017C06093B40014C067BD12C068BD10C0F3
:1000D000262F30E0309389002093880009C0262F16
:1000E00030E030938B0020938A0002C06093B3000D
:1000F000E82FF0E0EA5FFE4F60830895282F882301
:1001000019F0823099F01CC070E0660F771FCB01A8
:10011000880F991F880F991F880F991F861B970BAF
:1001200064E670E00E940901695F0BC03AEF360394
:10013000C001112464E670E00E9409016A5F01C0F9
:1001400060E0822F0E9453000895833048F49AB1F2
:10015000E82FF0E0E050FF4F8081892B8AB90895A5
:1001600094B1E82FF0E0E050FF4F8081892B84B9F3
:10017000089580E00E94A50081E00E94A50082E031
:100180000E94A50083E00E94A50084E00E94A500D3
:1001900085E00E94A500089584B5836A84BD85B575
:1001A000856085BD0895E0E8F0E08081816A808304
:1001B000E1E8F0E080818D6080830895E0EBF0E07D
:1001C0008081836A8083E1EBF0E0808187608083B7
:1001D00008950E94CC000E94D3000E94DE00089582
:1001E0000E94B9000E94E90067E080E00E947E0062
:1001F00067E081E00E947E0067E082E00E947E006E
:1002000067E083E00E947E0067E084E00E947E0059
:10021000FFCF97FB072E16F4009407D077FD09D087
:100220000E941D0107FC05D03EF4909581959F4FDB
:100230000895709561957F4F0895AA1BBB1B51E1EE
:1002400007C0AA1FBB1FA617B70710F0A61BB70B46
:10025000881F991F5A95A9F780959095BC01CD01EB
:060260000895F894FFCFA1
:060266000820400204081C
:00000001FF
